{
	"contracts/hw0.sol": {
		"ECC": {
			"abi": [
				{
					"inputs": [
						{
							"internalType": "uint256",
							"name": "x1",
							"type": "uint256"
						},
						{
							"internalType": "uint256",
							"name": "y1",
							"type": "uint256"
						},
						{
							"internalType": "uint256",
							"name": "x2",
							"type": "uint256"
						},
						{
							"internalType": "uint256",
							"name": "y2",
							"type": "uint256"
						}
					],
					"name": "add",
					"outputs": [
						{
							"internalType": "uint256",
							"name": "",
							"type": "uint256"
						},
						{
							"internalType": "uint256",
							"name": "",
							"type": "uint256"
						}
					],
					"stateMutability": "view",
					"type": "function"
				}
			],
			"devdoc": {
				"kind": "dev",
				"methods": {},
				"version": 1
			},
			"evm": {
				"assembly": "    /* \"contracts/hw0.sol\":57:394  contract ECC {... */\n  mstore(0x40, 0x80)\n  callvalue\n  dup1\n  iszero\n  tag_1\n  jumpi\n  0x00\n  dup1\n  revert\ntag_1:\n  pop\n  dataSize(sub_0)\n  dup1\n  dataOffset(sub_0)\n  0x00\n  codecopy\n  0x00\n  return\nstop\n\nsub_0: assembly {\n        /* \"contracts/hw0.sol\":57:394  contract ECC {... */\n      mstore(0x40, 0x80)\n      callvalue\n      dup1\n      iszero\n      tag_1\n      jumpi\n      0x00\n      dup1\n      revert\n    tag_1:\n      pop\n      jumpi(tag_2, lt(calldatasize, 0x04))\n      shr(0xe0, calldataload(0x00))\n      dup1\n      0xe022d77c\n      eq\n      tag_3\n      jumpi\n    tag_2:\n      0x00\n      dup1\n      revert\n        /* \"contracts/hw0.sol\":76:392  function add (uint x1, uint y1, uint x2, uint y2) public view returns (uint, uint)  {... */\n    tag_3:\n      tag_4\n      0x04\n      dup1\n      calldatasize\n      sub\n      dup2\n      add\n      swap1\n      tag_5\n      swap2\n      swap1\n      tag_6\n      jump\t// in\n    tag_5:\n      tag_7\n      jump\t// in\n    tag_4:\n      mload(0x40)\n      tag_8\n      swap3\n      swap2\n      swap1\n      tag_9\n      jump\t// in\n    tag_8:\n      mload(0x40)\n      dup1\n      swap2\n      sub\n      swap1\n      return\n    tag_7:\n        /* \"contracts/hw0.sol\":147:151  uint */\n      0x00\n        /* \"contracts/hw0.sol\":153:157  uint */\n      dup1\n        /* \"contracts/hw0.sol\":216:236  bytes memory payload */\n      0x00\n        /* \"contracts/hw0.sol\":250:252  x1 */\n      dup7\n        /* \"contracts/hw0.sol\":254:256  y1 */\n      dup7\n        /* \"contracts/hw0.sol\":258:260  x2 */\n      dup7\n        /* \"contracts/hw0.sol\":262:264  y2 */\n      dup7\n        /* \"contracts/hw0.sol\":239:265  abi.encode(x1, y1, x2, y2) */\n      add(0x20, mload(0x40))\n      tag_11\n      swap5\n      swap4\n      swap3\n      swap2\n      swap1\n      tag_12\n      jump\t// in\n    tag_11:\n      mload(0x40)\n      0x20\n      dup2\n      dup4\n      sub\n      sub\n      dup2\n      mstore\n      swap1\n      0x40\n      mstore\n        /* \"contracts/hw0.sol\":216:265  bytes memory payload = abi.encode(x1, y1, x2, y2) */\n      swap1\n      pop\n        /* \"contracts/hw0.sol\":277:284  bool ok */\n      0x00\n        /* \"contracts/hw0.sol\":286:303  bytes memory data */\n      dup1\n        /* \"contracts/hw0.sol\":315:316  6 */\n      0x06\n        /* \"contracts/hw0.sol\":307:328  address(6).staticcall */\n      0xffffffffffffffffffffffffffffffffffffffff\n      and\n        /* \"contracts/hw0.sol\":329:336  payload */\n      dup4\n        /* \"contracts/hw0.sol\":307:337  address(6).staticcall(payload) */\n      mload(0x40)\n      tag_13\n      swap2\n      swap1\n      tag_14\n      jump\t// in\n    tag_13:\n      0x00\n      mload(0x40)\n      dup1\n      dup4\n      sub\n      dup2\n      dup6\n      gas\n      staticcall\n      swap2\n      pop\n      pop\n      returndatasize\n      dup1\n      0x00\n      dup2\n      eq\n      tag_17\n      jumpi\n      mload(0x40)\n      swap2\n      pop\n      and(add(returndatasize, 0x3f), not(0x1f))\n      dup3\n      add\n      0x40\n      mstore\n      returndatasize\n      dup3\n      mstore\n      returndatasize\n      0x00\n      0x20\n      dup5\n      add\n      returndatacopy\n      jump(tag_16)\n    tag_17:\n      0x60\n      swap2\n      pop\n    tag_16:\n      pop\n        /* \"contracts/hw0.sol\":276:337  (bool ok, bytes memory data) = address(6).staticcall(payload) */\n      swap2\n      pop\n      swap2\n      pop\n        /* \"contracts/hw0.sol\":366:370  data */\n      dup1\n        /* \"contracts/hw0.sol\":355:385  abi.decode(data, (uint, uint)) */\n      dup1\n      0x20\n      add\n      swap1\n      mload\n      dup2\n      add\n      swap1\n      tag_18\n      swap2\n      swap1\n      tag_19\n      jump\t// in\n    tag_18:\n        /* \"contracts/hw0.sol\":348:385  return abi.decode(data, (uint, uint)) */\n      swap5\n      pop\n      swap5\n      pop\n      pop\n      pop\n      pop\n        /* \"contracts/hw0.sol\":76:392  function add (uint x1, uint y1, uint x2, uint y2) public view returns (uint, uint)  {... */\n      swap5\n      pop\n      swap5\n      swap3\n      pop\n      pop\n      pop\n      jump\t// out\n        /* \"#utility.yul\":88:205   */\n    tag_21:\n        /* \"#utility.yul\":197:198   */\n      0x00\n        /* \"#utility.yul\":194:195   */\n      dup1\n        /* \"#utility.yul\":187:199   */\n      revert\n        /* \"#utility.yul\":334:411   */\n    tag_23:\n        /* \"#utility.yul\":371:378   */\n      0x00\n        /* \"#utility.yul\":400:405   */\n      dup2\n        /* \"#utility.yul\":389:405   */\n      swap1\n      pop\n        /* \"#utility.yul\":334:411   */\n      swap2\n      swap1\n      pop\n      jump\t// out\n        /* \"#utility.yul\":417:539   */\n    tag_24:\n        /* \"#utility.yul\":490:514   */\n      tag_38\n        /* \"#utility.yul\":508:513   */\n      dup2\n        /* \"#utility.yul\":490:514   */\n      tag_23\n      jump\t// in\n    tag_38:\n        /* \"#utility.yul\":483:488   */\n      dup2\n        /* \"#utility.yul\":480:515   */\n      eq\n        /* \"#utility.yul\":470:533   */\n      tag_39\n      jumpi\n        /* \"#utility.yul\":529:530   */\n      0x00\n        /* \"#utility.yul\":526:527   */\n      dup1\n        /* \"#utility.yul\":519:531   */\n      revert\n        /* \"#utility.yul\":470:533   */\n    tag_39:\n        /* \"#utility.yul\":417:539   */\n      pop\n      jump\t// out\n        /* \"#utility.yul\":545:684   */\n    tag_25:\n        /* \"#utility.yul\":591:596   */\n      0x00\n        /* \"#utility.yul\":629:635   */\n      dup2\n        /* \"#utility.yul\":616:636   */\n      calldataload\n        /* \"#utility.yul\":607:636   */\n      swap1\n      pop\n        /* \"#utility.yul\":645:678   */\n      tag_41\n        /* \"#utility.yul\":672:677   */\n      dup2\n        /* \"#utility.yul\":645:678   */\n      tag_24\n      jump\t// in\n    tag_41:\n        /* \"#utility.yul\":545:684   */\n      swap3\n      swap2\n      pop\n      pop\n      jump\t// out\n        /* \"#utility.yul\":690:1455   */\n    tag_6:\n        /* \"#utility.yul\":776:782   */\n      0x00\n        /* \"#utility.yul\":784:790   */\n      dup1\n        /* \"#utility.yul\":792:798   */\n      0x00\n        /* \"#utility.yul\":800:806   */\n      dup1\n        /* \"#utility.yul\":849:852   */\n      0x80\n        /* \"#utility.yul\":837:846   */\n      dup6\n        /* \"#utility.yul\":828:835   */\n      dup8\n        /* \"#utility.yul\":824:847   */\n      sub\n        /* \"#utility.yul\":820:853   */\n      slt\n        /* \"#utility.yul\":817:937   */\n      iszero\n      tag_43\n      jumpi\n        /* \"#utility.yul\":856:935   */\n      tag_44\n      tag_21\n      jump\t// in\n    tag_44:\n        /* \"#utility.yul\":817:937   */\n    tag_43:\n        /* \"#utility.yul\":976:977   */\n      0x00\n        /* \"#utility.yul\":1001:1054   */\n      tag_45\n        /* \"#utility.yul\":1046:1053   */\n      dup8\n        /* \"#utility.yul\":1037:1043   */\n      dup3\n        /* \"#utility.yul\":1026:1035   */\n      dup9\n        /* \"#utility.yul\":1022:1044   */\n      add\n        /* \"#utility.yul\":1001:1054   */\n      tag_25\n      jump\t// in\n    tag_45:\n        /* \"#utility.yul\":991:1054   */\n      swap5\n      pop\n        /* \"#utility.yul\":947:1064   */\n      pop\n        /* \"#utility.yul\":1103:1105   */\n      0x20\n        /* \"#utility.yul\":1129:1182   */\n      tag_46\n        /* \"#utility.yul\":1174:1181   */\n      dup8\n        /* \"#utility.yul\":1165:1171   */\n      dup3\n        /* \"#utility.yul\":1154:1163   */\n      dup9\n        /* \"#utility.yul\":1150:1172   */\n      add\n        /* \"#utility.yul\":1129:1182   */\n      tag_25\n      jump\t// in\n    tag_46:\n        /* \"#utility.yul\":1119:1182   */\n      swap4\n      pop\n        /* \"#utility.yul\":1074:1192   */\n      pop\n        /* \"#utility.yul\":1231:1233   */\n      0x40\n        /* \"#utility.yul\":1257:1310   */\n      tag_47\n        /* \"#utility.yul\":1302:1309   */\n      dup8\n        /* \"#utility.yul\":1293:1299   */\n      dup3\n        /* \"#utility.yul\":1282:1291   */\n      dup9\n        /* \"#utility.yul\":1278:1300   */\n      add\n        /* \"#utility.yul\":1257:1310   */\n      tag_25\n      jump\t// in\n    tag_47:\n        /* \"#utility.yul\":1247:1310   */\n      swap3\n      pop\n        /* \"#utility.yul\":1202:1320   */\n      pop\n        /* \"#utility.yul\":1359:1361   */\n      0x60\n        /* \"#utility.yul\":1385:1438   */\n      tag_48\n        /* \"#utility.yul\":1430:1437   */\n      dup8\n        /* \"#utility.yul\":1421:1427   */\n      dup3\n        /* \"#utility.yul\":1410:1419   */\n      dup9\n        /* \"#utility.yul\":1406:1428   */\n      add\n        /* \"#utility.yul\":1385:1438   */\n      tag_25\n      jump\t// in\n    tag_48:\n        /* \"#utility.yul\":1375:1438   */\n      swap2\n      pop\n        /* \"#utility.yul\":1330:1448   */\n      pop\n        /* \"#utility.yul\":690:1455   */\n      swap3\n      swap6\n      swap2\n      swap5\n      pop\n      swap3\n      pop\n      jump\t// out\n        /* \"#utility.yul\":1461:1579   */\n    tag_26:\n        /* \"#utility.yul\":1548:1572   */\n      tag_50\n        /* \"#utility.yul\":1566:1571   */\n      dup2\n        /* \"#utility.yul\":1548:1572   */\n      tag_23\n      jump\t// in\n    tag_50:\n        /* \"#utility.yul\":1543:1546   */\n      dup3\n        /* \"#utility.yul\":1536:1573   */\n      mstore\n        /* \"#utility.yul\":1461:1579   */\n      pop\n      pop\n      jump\t// out\n        /* \"#utility.yul\":1585:1917   */\n    tag_9:\n        /* \"#utility.yul\":1706:1710   */\n      0x00\n        /* \"#utility.yul\":1744:1746   */\n      0x40\n        /* \"#utility.yul\":1733:1742   */\n      dup3\n        /* \"#utility.yul\":1729:1747   */\n      add\n        /* \"#utility.yul\":1721:1747   */\n      swap1\n      pop\n        /* \"#utility.yul\":1757:1828   */\n      tag_52\n        /* \"#utility.yul\":1825:1826   */\n      0x00\n        /* \"#utility.yul\":1814:1823   */\n      dup4\n        /* \"#utility.yul\":1810:1827   */\n      add\n        /* \"#utility.yul\":1801:1807   */\n      dup6\n        /* \"#utility.yul\":1757:1828   */\n      tag_26\n      jump\t// in\n    tag_52:\n        /* \"#utility.yul\":1838:1910   */\n      tag_53\n        /* \"#utility.yul\":1906:1908   */\n      0x20\n        /* \"#utility.yul\":1895:1904   */\n      dup4\n        /* \"#utility.yul\":1891:1909   */\n      add\n        /* \"#utility.yul\":1882:1888   */\n      dup5\n        /* \"#utility.yul\":1838:1910   */\n      tag_26\n      jump\t// in\n    tag_53:\n        /* \"#utility.yul\":1585:1917   */\n      swap4\n      swap3\n      pop\n      pop\n      pop\n      jump\t// out\n        /* \"#utility.yul\":1923:2476   */\n    tag_12:\n        /* \"#utility.yul\":2100:2104   */\n      0x00\n        /* \"#utility.yul\":2138:2141   */\n      0x80\n        /* \"#utility.yul\":2127:2136   */\n      dup3\n        /* \"#utility.yul\":2123:2142   */\n      add\n        /* \"#utility.yul\":2115:2142   */\n      swap1\n      pop\n        /* \"#utility.yul\":2152:2223   */\n      tag_55\n        /* \"#utility.yul\":2220:2221   */\n      0x00\n        /* \"#utility.yul\":2209:2218   */\n      dup4\n        /* \"#utility.yul\":2205:2222   */\n      add\n        /* \"#utility.yul\":2196:2202   */\n      dup8\n        /* \"#utility.yul\":2152:2223   */\n      tag_26\n      jump\t// in\n    tag_55:\n        /* \"#utility.yul\":2233:2305   */\n      tag_56\n        /* \"#utility.yul\":2301:2303   */\n      0x20\n        /* \"#utility.yul\":2290:2299   */\n      dup4\n        /* \"#utility.yul\":2286:2304   */\n      add\n        /* \"#utility.yul\":2277:2283   */\n      dup7\n        /* \"#utility.yul\":2233:2305   */\n      tag_26\n      jump\t// in\n    tag_56:\n        /* \"#utility.yul\":2315:2387   */\n      tag_57\n        /* \"#utility.yul\":2383:2385   */\n      0x40\n        /* \"#utility.yul\":2372:2381   */\n      dup4\n        /* \"#utility.yul\":2368:2386   */\n      add\n        /* \"#utility.yul\":2359:2365   */\n      dup6\n        /* \"#utility.yul\":2315:2387   */\n      tag_26\n      jump\t// in\n    tag_57:\n        /* \"#utility.yul\":2397:2469   */\n      tag_58\n        /* \"#utility.yul\":2465:2467   */\n      0x60\n        /* \"#utility.yul\":2454:2463   */\n      dup4\n        /* \"#utility.yul\":2450:2468   */\n      add\n        /* \"#utility.yul\":2441:2447   */\n      dup5\n        /* \"#utility.yul\":2397:2469   */\n      tag_26\n      jump\t// in\n    tag_58:\n        /* \"#utility.yul\":1923:2476   */\n      swap6\n      swap5\n      pop\n      pop\n      pop\n      pop\n      pop\n      jump\t// out\n        /* \"#utility.yul\":2482:2580   */\n    tag_27:\n        /* \"#utility.yul\":2533:2539   */\n      0x00\n        /* \"#utility.yul\":2567:2572   */\n      dup2\n        /* \"#utility.yul\":2561:2573   */\n      mload\n        /* \"#utility.yul\":2551:2573   */\n      swap1\n      pop\n        /* \"#utility.yul\":2482:2580   */\n      swap2\n      swap1\n      pop\n      jump\t// out\n        /* \"#utility.yul\":2586:2733   */\n    tag_28:\n        /* \"#utility.yul\":2687:2698   */\n      0x00\n        /* \"#utility.yul\":2724:2727   */\n      dup2\n        /* \"#utility.yul\":2709:2727   */\n      swap1\n      pop\n        /* \"#utility.yul\":2586:2733   */\n      swap3\n      swap2\n      pop\n      pop\n      jump\t// out\n        /* \"#utility.yul\":2739:2878   */\n    tag_29:\n        /* \"#utility.yul\":2828:2834   */\n      dup3\n        /* \"#utility.yul\":2823:2826   */\n      dup2\n        /* \"#utility.yul\":2818:2821   */\n      dup4\n        /* \"#utility.yul\":2812:2835   */\n      mcopy\n        /* \"#utility.yul\":2869:2870   */\n      0x00\n        /* \"#utility.yul\":2860:2866   */\n      dup4\n        /* \"#utility.yul\":2855:2858   */\n      dup4\n        /* \"#utility.yul\":2851:2867   */\n      add\n        /* \"#utility.yul\":2844:2871   */\n      mstore\n        /* \"#utility.yul\":2739:2878   */\n      pop\n      pop\n      pop\n      jump\t// out\n        /* \"#utility.yul\":2884:3270   */\n    tag_30:\n        /* \"#utility.yul\":2988:2991   */\n      0x00\n        /* \"#utility.yul\":3016:3054   */\n      tag_63\n        /* \"#utility.yul\":3048:3053   */\n      dup3\n        /* \"#utility.yul\":3016:3054   */\n      tag_27\n      jump\t// in\n    tag_63:\n        /* \"#utility.yul\":3070:3158   */\n      tag_64\n        /* \"#utility.yul\":3151:3157   */\n      dup2\n        /* \"#utility.yul\":3146:3149   */\n      dup6\n        /* \"#utility.yul\":3070:3158   */\n      tag_28\n      jump\t// in\n    tag_64:\n        /* \"#utility.yul\":3063:3158   */\n      swap4\n      pop\n        /* \"#utility.yul\":3167:3232   */\n      tag_65\n        /* \"#utility.yul\":3225:3231   */\n      dup2\n        /* \"#utility.yul\":3220:3223   */\n      dup6\n        /* \"#utility.yul\":3213:3217   */\n      0x20\n        /* \"#utility.yul\":3206:3211   */\n      dup7\n        /* \"#utility.yul\":3202:3218   */\n      add\n        /* \"#utility.yul\":3167:3232   */\n      tag_29\n      jump\t// in\n    tag_65:\n        /* \"#utility.yul\":3257:3263   */\n      dup1\n        /* \"#utility.yul\":3252:3255   */\n      dup5\n        /* \"#utility.yul\":3248:3264   */\n      add\n        /* \"#utility.yul\":3241:3264   */\n      swap2\n      pop\n        /* \"#utility.yul\":2992:3270   */\n      pop\n        /* \"#utility.yul\":2884:3270   */\n      swap3\n      swap2\n      pop\n      pop\n      jump\t// out\n        /* \"#utility.yul\":3276:3547   */\n    tag_14:\n        /* \"#utility.yul\":3406:3409   */\n      0x00\n        /* \"#utility.yul\":3428:3521   */\n      tag_67\n        /* \"#utility.yul\":3517:3520   */\n      dup3\n        /* \"#utility.yul\":3508:3514   */\n      dup5\n        /* \"#utility.yul\":3428:3521   */\n      tag_30\n      jump\t// in\n    tag_67:\n        /* \"#utility.yul\":3421:3521   */\n      swap2\n      pop\n        /* \"#utility.yul\":3538:3541   */\n      dup2\n        /* \"#utility.yul\":3531:3541   */\n      swap1\n      pop\n        /* \"#utility.yul\":3276:3547   */\n      swap3\n      swap2\n      pop\n      pop\n      jump\t// out\n        /* \"#utility.yul\":3553:3696   */\n    tag_31:\n        /* \"#utility.yul\":3610:3615   */\n      0x00\n        /* \"#utility.yul\":3641:3647   */\n      dup2\n        /* \"#utility.yul\":3635:3648   */\n      mload\n        /* \"#utility.yul\":3626:3648   */\n      swap1\n      pop\n        /* \"#utility.yul\":3657:3690   */\n      tag_69\n        /* \"#utility.yul\":3684:3689   */\n      dup2\n        /* \"#utility.yul\":3657:3690   */\n      tag_24\n      jump\t// in\n    tag_69:\n        /* \"#utility.yul\":3553:3696   */\n      swap3\n      swap2\n      pop\n      pop\n      jump\t// out\n        /* \"#utility.yul\":3702:4209   */\n    tag_19:\n        /* \"#utility.yul\":3781:3787   */\n      0x00\n        /* \"#utility.yul\":3789:3795   */\n      dup1\n        /* \"#utility.yul\":3838:3840   */\n      0x40\n        /* \"#utility.yul\":3826:3835   */\n      dup4\n        /* \"#utility.yul\":3817:3824   */\n      dup6\n        /* \"#utility.yul\":3813:3836   */\n      sub\n        /* \"#utility.yul\":3809:3841   */\n      slt\n        /* \"#utility.yul\":3806:3925   */\n      iszero\n      tag_71\n      jumpi\n        /* \"#utility.yul\":3844:3923   */\n      tag_72\n      tag_21\n      jump\t// in\n    tag_72:\n        /* \"#utility.yul\":3806:3925   */\n    tag_71:\n        /* \"#utility.yul\":3964:3965   */\n      0x00\n        /* \"#utility.yul\":3989:4053   */\n      tag_73\n        /* \"#utility.yul\":4045:4052   */\n      dup6\n        /* \"#utility.yul\":4036:4042   */\n      dup3\n        /* \"#utility.yul\":4025:4034   */\n      dup7\n        /* \"#utility.yul\":4021:4043   */\n      add\n        /* \"#utility.yul\":3989:4053   */\n      tag_31\n      jump\t// in\n    tag_73:\n        /* \"#utility.yul\":3979:4053   */\n      swap3\n      pop\n        /* \"#utility.yul\":3935:4063   */\n      pop\n        /* \"#utility.yul\":4102:4104   */\n      0x20\n        /* \"#utility.yul\":4128:4192   */\n      tag_74\n        /* \"#utility.yul\":4184:4191   */\n      dup6\n        /* \"#utility.yul\":4175:4181   */\n      dup3\n        /* \"#utility.yul\":4164:4173   */\n      dup7\n        /* \"#utility.yul\":4160:4182   */\n      add\n        /* \"#utility.yul\":4128:4192   */\n      tag_31\n      jump\t// in\n    tag_74:\n        /* \"#utility.yul\":4118:4192   */\n      swap2\n      pop\n        /* \"#utility.yul\":4073:4202   */\n      pop\n        /* \"#utility.yul\":3702:4209   */\n      swap3\n      pop\n      swap3\n      swap1\n      pop\n      jump\t// out\n\n    auxdata: 0xa26469706673582212205f97f9de080831210d0a2345485efab7a84ca546a1868cd7b53ea10f8ca23feb64736f6c634300081a0033\n}\n",
				"bytecode": {
					"linkReferences": {},
					"object": "6080604052348015600e575f80fd5b5061031b8061001c5f395ff3fe608060405234801561000f575f80fd5b5060043610610029575f3560e01c8063e022d77c1461002d575b5f80fd5b6100476004803603810190610042919061014e565b61005e565b6040516100559291906101c1565b60405180910390f35b5f805f8686868660405160200161007894939291906101e8565b60405160208183030381529060405290505f80600673ffffffffffffffffffffffffffffffffffffffff16836040516100b1919061027d565b5f60405180830381855afa9150503d805f81146100e9576040519150601f19603f3d011682016040523d82523d5f602084013e6100ee565b606091505b50915091508080602001905181019061010791906102a7565b9450945050505094509492505050565b5f80fd5b5f819050919050565b61012d8161011b565b8114610137575f80fd5b50565b5f8135905061014881610124565b92915050565b5f805f806080858703121561016657610165610117565b5b5f6101738782880161013a565b94505060206101848782880161013a565b93505060406101958782880161013a565b92505060606101a68782880161013a565b91505092959194509250565b6101bb8161011b565b82525050565b5f6040820190506101d45f8301856101b2565b6101e160208301846101b2565b9392505050565b5f6080820190506101fb5f8301876101b2565b61020860208301866101b2565b61021560408301856101b2565b61022260608301846101b2565b95945050505050565b5f81519050919050565b5f81905092915050565b8281835e5f83830152505050565b5f6102578261022b565b6102618185610235565b935061027181856020860161023f565b80840191505092915050565b5f610288828461024d565b915081905092915050565b5f815190506102a181610124565b92915050565b5f80604083850312156102bd576102bc610117565b5b5f6102ca85828601610293565b92505060206102db85828601610293565b915050925092905056fea26469706673582212205f97f9de080831210d0a2345485efab7a84ca546a1868cd7b53ea10f8ca23feb64736f6c634300081a0033",
					"opcodes": "PUSH1 0x80 PUSH1 0x40 MSTORE CALLVALUE DUP1 ISZERO PUSH1 0xE JUMPI PUSH0 DUP1 REVERT JUMPDEST POP PUSH2 0x31B DUP1 PUSH2 0x1C PUSH0 CODECOPY PUSH0 RETURN INVALID PUSH1 0x80 PUSH1 0x40 MSTORE CALLVALUE DUP1 ISZERO PUSH2 0xF JUMPI PUSH0 DUP1 REVERT JUMPDEST POP PUSH1 0x4 CALLDATASIZE LT PUSH2 0x29 JUMPI PUSH0 CALLDATALOAD PUSH1 0xE0 SHR DUP1 PUSH4 0xE022D77C EQ PUSH2 0x2D JUMPI JUMPDEST PUSH0 DUP1 REVERT JUMPDEST PUSH2 0x47 PUSH1 0x4 DUP1 CALLDATASIZE SUB DUP2 ADD SWAP1 PUSH2 0x42 SWAP2 SWAP1 PUSH2 0x14E JUMP JUMPDEST PUSH2 0x5E JUMP JUMPDEST PUSH1 0x40 MLOAD PUSH2 0x55 SWAP3 SWAP2 SWAP1 PUSH2 0x1C1 JUMP JUMPDEST PUSH1 0x40 MLOAD DUP1 SWAP2 SUB SWAP1 RETURN JUMPDEST PUSH0 DUP1 PUSH0 DUP7 DUP7 DUP7 DUP7 PUSH1 0x40 MLOAD PUSH1 0x20 ADD PUSH2 0x78 SWAP5 SWAP4 SWAP3 SWAP2 SWAP1 PUSH2 0x1E8 JUMP JUMPDEST PUSH1 0x40 MLOAD PUSH1 0x20 DUP2 DUP4 SUB SUB DUP2 MSTORE SWAP1 PUSH1 0x40 MSTORE SWAP1 POP PUSH0 DUP1 PUSH1 0x6 PUSH20 0xFFFFFFFFFFFFFFFFFFFFFFFFFFFFFFFFFFFFFFFF AND DUP4 PUSH1 0x40 MLOAD PUSH2 0xB1 SWAP2 SWAP1 PUSH2 0x27D JUMP JUMPDEST PUSH0 PUSH1 0x40 MLOAD DUP1 DUP4 SUB DUP2 DUP6 GAS STATICCALL SWAP2 POP POP RETURNDATASIZE DUP1 PUSH0 DUP2 EQ PUSH2 0xE9 JUMPI PUSH1 0x40 MLOAD SWAP2 POP PUSH1 0x1F NOT PUSH1 0x3F RETURNDATASIZE ADD AND DUP3 ADD PUSH1 0x40 MSTORE RETURNDATASIZE DUP3 MSTORE RETURNDATASIZE PUSH0 PUSH1 0x20 DUP5 ADD RETURNDATACOPY PUSH2 0xEE JUMP JUMPDEST PUSH1 0x60 SWAP2 POP JUMPDEST POP SWAP2 POP SWAP2 POP DUP1 DUP1 PUSH1 0x20 ADD SWAP1 MLOAD DUP2 ADD SWAP1 PUSH2 0x107 SWAP2 SWAP1 PUSH2 0x2A7 JUMP JUMPDEST SWAP5 POP SWAP5 POP POP POP POP SWAP5 POP SWAP5 SWAP3 POP POP POP JUMP JUMPDEST PUSH0 DUP1 REVERT JUMPDEST PUSH0 DUP2 SWAP1 POP SWAP2 SWAP1 POP JUMP JUMPDEST PUSH2 0x12D DUP2 PUSH2 0x11B JUMP JUMPDEST DUP2 EQ PUSH2 0x137 JUMPI PUSH0 DUP1 REVERT JUMPDEST POP JUMP JUMPDEST PUSH0 DUP2 CALLDATALOAD SWAP1 POP PUSH2 0x148 DUP2 PUSH2 0x124 JUMP JUMPDEST SWAP3 SWAP2 POP POP JUMP JUMPDEST PUSH0 DUP1 PUSH0 DUP1 PUSH1 0x80 DUP6 DUP8 SUB SLT ISZERO PUSH2 0x166 JUMPI PUSH2 0x165 PUSH2 0x117 JUMP JUMPDEST JUMPDEST PUSH0 PUSH2 0x173 DUP8 DUP3 DUP9 ADD PUSH2 0x13A JUMP JUMPDEST SWAP5 POP POP PUSH1 0x20 PUSH2 0x184 DUP8 DUP3 DUP9 ADD PUSH2 0x13A JUMP JUMPDEST SWAP4 POP POP PUSH1 0x40 PUSH2 0x195 DUP8 DUP3 DUP9 ADD PUSH2 0x13A JUMP JUMPDEST SWAP3 POP POP PUSH1 0x60 PUSH2 0x1A6 DUP8 DUP3 DUP9 ADD PUSH2 0x13A JUMP JUMPDEST SWAP2 POP POP SWAP3 SWAP6 SWAP2 SWAP5 POP SWAP3 POP JUMP JUMPDEST PUSH2 0x1BB DUP2 PUSH2 0x11B JUMP JUMPDEST DUP3 MSTORE POP POP JUMP JUMPDEST PUSH0 PUSH1 0x40 DUP3 ADD SWAP1 POP PUSH2 0x1D4 PUSH0 DUP4 ADD DUP6 PUSH2 0x1B2 JUMP JUMPDEST PUSH2 0x1E1 PUSH1 0x20 DUP4 ADD DUP5 PUSH2 0x1B2 JUMP JUMPDEST SWAP4 SWAP3 POP POP POP JUMP JUMPDEST PUSH0 PUSH1 0x80 DUP3 ADD SWAP1 POP PUSH2 0x1FB PUSH0 DUP4 ADD DUP8 PUSH2 0x1B2 JUMP JUMPDEST PUSH2 0x208 PUSH1 0x20 DUP4 ADD DUP7 PUSH2 0x1B2 JUMP JUMPDEST PUSH2 0x215 PUSH1 0x40 DUP4 ADD DUP6 PUSH2 0x1B2 JUMP JUMPDEST PUSH2 0x222 PUSH1 0x60 DUP4 ADD DUP5 PUSH2 0x1B2 JUMP JUMPDEST SWAP6 SWAP5 POP POP POP POP POP JUMP JUMPDEST PUSH0 DUP2 MLOAD SWAP1 POP SWAP2 SWAP1 POP JUMP JUMPDEST PUSH0 DUP2 SWAP1 POP SWAP3 SWAP2 POP POP JUMP JUMPDEST DUP3 DUP2 DUP4 MCOPY PUSH0 DUP4 DUP4 ADD MSTORE POP POP POP JUMP JUMPDEST PUSH0 PUSH2 0x257 DUP3 PUSH2 0x22B JUMP JUMPDEST PUSH2 0x261 DUP2 DUP6 PUSH2 0x235 JUMP JUMPDEST SWAP4 POP PUSH2 0x271 DUP2 DUP6 PUSH1 0x20 DUP7 ADD PUSH2 0x23F JUMP JUMPDEST DUP1 DUP5 ADD SWAP2 POP POP SWAP3 SWAP2 POP POP JUMP JUMPDEST PUSH0 PUSH2 0x288 DUP3 DUP5 PUSH2 0x24D JUMP JUMPDEST SWAP2 POP DUP2 SWAP1 POP SWAP3 SWAP2 POP POP JUMP JUMPDEST PUSH0 DUP2 MLOAD SWAP1 POP PUSH2 0x2A1 DUP2 PUSH2 0x124 JUMP JUMPDEST SWAP3 SWAP2 POP POP JUMP JUMPDEST PUSH0 DUP1 PUSH1 0x40 DUP4 DUP6 SUB SLT ISZERO PUSH2 0x2BD JUMPI PUSH2 0x2BC PUSH2 0x117 JUMP JUMPDEST JUMPDEST PUSH0 PUSH2 0x2CA DUP6 DUP3 DUP7 ADD PUSH2 0x293 JUMP JUMPDEST SWAP3 POP POP PUSH1 0x20 PUSH2 0x2DB DUP6 DUP3 DUP7 ADD PUSH2 0x293 JUMP JUMPDEST SWAP2 POP POP SWAP3 POP SWAP3 SWAP1 POP JUMP INVALID LOG2 PUSH5 0x6970667358 0x22 SLT KECCAK256 PUSH0 SWAP8 0xF9 0xDE ADDMOD ADDMOD BALANCE 0x21 0xD EXP 0x23 GASLIMIT BASEFEE MCOPY STATICCALL 0xB7 0xA8 0x4C 0xA5 CHAINID LOG1 DUP7 DUP13 0xD7 0xB5 RETURNDATACOPY LOG1 0xF DUP13 LOG2 EXTCODEHASH 0xEB PUSH5 0x736F6C6343 STOP ADDMOD BYTE STOP CALLER "
				},
				"gasEstimates": {
					"creation": {
						"codeDepositCost": "159000",
						"executionCost": "200",
						"totalCost": "159200"
					},
					"external": {
						"add(uint256,uint256,uint256,uint256)": "infinite"
					}
				},
				"methodIdentifiers": {
					"add(uint256,uint256,uint256,uint256)": "e022d77c"
				}
			},
			"storageLayout": {
				"storage": [],
				"types": null
			},
			"userdoc": {
				"kind": "user",
				"methods": {},
				"version": 1
			}
		}
	}
}