{
	"data": {
		"bytecode": {
			"linkReferences": {},
			"object": "6080604052348015600e575f80fd5b506105ed8061001c5f395ff3fe608060405234801561000f575f80fd5b5060043610610029575f3560e01c80637c2f35541461002d575b5f80fd5b6100476004803603810190610042919061033a565b61005d565b60405161005491906103ba565b60405180910390f35b5f8085602001517f30644e72e131a029b85045b68181585d97816a916871ca8d3c208c16d87cfd4761008f9190610400565b90505f6040518060400160405280885f015181526020018381525090505f815f01518260200151885f015189602001518a604001518b606001518b5f01518c602001518c5f01518d602001518e604001518f606001516040516020016101009c9b9a99989796959493929190610442565b60405160208183030381529060405290505f80600873ffffffffffffffffffffffffffffffffffffffff1683604051610139919061054c565b5f60405180830381855afa9150503d805f8114610171576040519150601f19603f3d011682016040523d82523d5f602084013e610176565b606091505b509150915081610184575f80fd5b5f81806020019051810190610199919061058c565b9050809650505050505050949350505050565b5f604051905090565b5f80fd5b5f80fd5b5f601f19601f8301169050919050565b7f4e487b71000000000000000000000000000000000000000000000000000000005f52604160045260245ffd5b610203826101bd565b810181811067ffffffffffffffff82111715610222576102216101cd565b5b80604052505050565b5f6102346101ac565b905061024082826101fa565b919050565b5f819050919050565b61025781610245565b8114610261575f80fd5b50565b5f813590506102728161024e565b92915050565b5f6040828403121561028d5761028c6101b9565b5b610297604061022b565b90505f6102a684828501610264565b5f8301525060206102b984828501610264565b60208301525092915050565b5f608082840312156102da576102d96101b9565b5b6102e4608061022b565b90505f6102f384828501610264565b5f83015250602061030684828501610264565b602083015250604061031a84828501610264565b604083015250606061032e84828501610264565b60608301525092915050565b5f805f806101808587031215610353576103526101b5565b5b5f61036087828801610278565b9450506040610371878288016102c5565b93505060c061038287828801610278565b925050610100610394878288016102c5565b91505092959194509250565b5f8115159050919050565b6103b4816103a0565b82525050565b5f6020820190506103cd5f8301846103ab565b92915050565b7f4e487b71000000000000000000000000000000000000000000000000000000005f52601160045260245ffd5b5f61040a82610245565b915061041583610245565b925082820390508181111561042d5761042c6103d3565b5b92915050565b61043c81610245565b82525050565b5f610180820190506104565f83018f610433565b610463602083018e610433565b610470604083018d610433565b61047d606083018c610433565b61048a608083018b610433565b61049760a083018a610433565b6104a460c0830189610433565b6104b160e0830188610433565b6104bf610100830187610433565b6104cd610120830186610433565b6104db610140830185610433565b6104e9610160830184610433565b9d9c50505050505050505050505050565b5f81519050919050565b5f81905092915050565b8281835e5f83830152505050565b5f610526826104fa565b6105308185610504565b935061054081856020860161050e565b80840191505092915050565b5f610557828461051c565b915081905092915050565b61056b816103a0565b8114610575575f80fd5b50565b5f8151905061058681610562565b92915050565b5f602082840312156105a1576105a06101b5565b5b5f6105ae84828501610578565b9150509291505056fea2646970667358221220f8e6764ae1c029f58f1ce300c3a265d9f844fb624342194d1005d7decbd322e464736f6c634300081a0033",
			"opcodes": "PUSH1 0x80 PUSH1 0x40 MSTORE CALLVALUE DUP1 ISZERO PUSH1 0xE JUMPI PUSH0 DUP1 REVERT JUMPDEST POP PUSH2 0x5ED DUP1 PUSH2 0x1C PUSH0 CODECOPY PUSH0 RETURN INVALID PUSH1 0x80 PUSH1 0x40 MSTORE CALLVALUE DUP1 ISZERO PUSH2 0xF JUMPI PUSH0 DUP1 REVERT JUMPDEST POP PUSH1 0x4 CALLDATASIZE LT PUSH2 0x29 JUMPI PUSH0 CALLDATALOAD PUSH1 0xE0 SHR DUP1 PUSH4 0x7C2F3554 EQ PUSH2 0x2D JUMPI JUMPDEST PUSH0 DUP1 REVERT JUMPDEST PUSH2 0x47 PUSH1 0x4 DUP1 CALLDATASIZE SUB DUP2 ADD SWAP1 PUSH2 0x42 SWAP2 SWAP1 PUSH2 0x33A JUMP JUMPDEST PUSH2 0x5D JUMP JUMPDEST PUSH1 0x40 MLOAD PUSH2 0x54 SWAP2 SWAP1 PUSH2 0x3BA JUMP JUMPDEST PUSH1 0x40 MLOAD DUP1 SWAP2 SUB SWAP1 RETURN JUMPDEST PUSH0 DUP1 DUP6 PUSH1 0x20 ADD MLOAD PUSH32 0x30644E72E131A029B85045B68181585D97816A916871CA8D3C208C16D87CFD47 PUSH2 0x8F SWAP2 SWAP1 PUSH2 0x400 JUMP JUMPDEST SWAP1 POP PUSH0 PUSH1 0x40 MLOAD DUP1 PUSH1 0x40 ADD PUSH1 0x40 MSTORE DUP1 DUP9 PUSH0 ADD MLOAD DUP2 MSTORE PUSH1 0x20 ADD DUP4 DUP2 MSTORE POP SWAP1 POP PUSH0 DUP2 PUSH0 ADD MLOAD DUP3 PUSH1 0x20 ADD MLOAD DUP9 PUSH0 ADD MLOAD DUP10 PUSH1 0x20 ADD MLOAD DUP11 PUSH1 0x40 ADD MLOAD DUP12 PUSH1 0x60 ADD MLOAD DUP12 PUSH0 ADD MLOAD DUP13 PUSH1 0x20 ADD MLOAD DUP13 PUSH0 ADD MLOAD DUP14 PUSH1 0x20 ADD MLOAD DUP15 PUSH1 0x40 ADD MLOAD DUP16 PUSH1 0x60 ADD MLOAD PUSH1 0x40 MLOAD PUSH1 0x20 ADD PUSH2 0x100 SWAP13 SWAP12 SWAP11 SWAP10 SWAP9 SWAP8 SWAP7 SWAP6 SWAP5 SWAP4 SWAP3 SWAP2 SWAP1 PUSH2 0x442 JUMP JUMPDEST PUSH1 0x40 MLOAD PUSH1 0x20 DUP2 DUP4 SUB SUB DUP2 MSTORE SWAP1 PUSH1 0x40 MSTORE SWAP1 POP PUSH0 DUP1 PUSH1 0x8 PUSH20 0xFFFFFFFFFFFFFFFFFFFFFFFFFFFFFFFFFFFFFFFF AND DUP4 PUSH1 0x40 MLOAD PUSH2 0x139 SWAP2 SWAP1 PUSH2 0x54C JUMP JUMPDEST PUSH0 PUSH1 0x40 MLOAD DUP1 DUP4 SUB DUP2 DUP6 GAS STATICCALL SWAP2 POP POP RETURNDATASIZE DUP1 PUSH0 DUP2 EQ PUSH2 0x171 JUMPI PUSH1 0x40 MLOAD SWAP2 POP PUSH1 0x1F NOT PUSH1 0x3F RETURNDATASIZE ADD AND DUP3 ADD PUSH1 0x40 MSTORE RETURNDATASIZE DUP3 MSTORE RETURNDATASIZE PUSH0 PUSH1 0x20 DUP5 ADD RETURNDATACOPY PUSH2 0x176 JUMP JUMPDEST PUSH1 0x60 SWAP2 POP JUMPDEST POP SWAP2 POP SWAP2 POP DUP2 PUSH2 0x184 JUMPI PUSH0 DUP1 REVERT JUMPDEST PUSH0 DUP2 DUP1 PUSH1 0x20 ADD SWAP1 MLOAD DUP2 ADD SWAP1 PUSH2 0x199 SWAP2 SWAP1 PUSH2 0x58C JUMP JUMPDEST SWAP1 POP DUP1 SWAP7 POP POP POP POP POP POP POP SWAP5 SWAP4 POP POP POP POP JUMP JUMPDEST PUSH0 PUSH1 0x40 MLOAD SWAP1 POP SWAP1 JUMP JUMPDEST PUSH0 DUP1 REVERT JUMPDEST PUSH0 DUP1 REVERT JUMPDEST PUSH0 PUSH1 0x1F NOT PUSH1 0x1F DUP4 ADD AND SWAP1 POP SWAP2 SWAP1 POP JUMP JUMPDEST PUSH32 0x4E487B7100000000000000000000000000000000000000000000000000000000 PUSH0 MSTORE PUSH1 0x41 PUSH1 0x4 MSTORE PUSH1 0x24 PUSH0 REVERT JUMPDEST PUSH2 0x203 DUP3 PUSH2 0x1BD JUMP JUMPDEST DUP2 ADD DUP2 DUP2 LT PUSH8 0xFFFFFFFFFFFFFFFF DUP3 GT OR ISZERO PUSH2 0x222 JUMPI PUSH2 0x221 PUSH2 0x1CD JUMP JUMPDEST JUMPDEST DUP1 PUSH1 0x40 MSTORE POP POP POP JUMP JUMPDEST PUSH0 PUSH2 0x234 PUSH2 0x1AC JUMP JUMPDEST SWAP1 POP PUSH2 0x240 DUP3 DUP3 PUSH2 0x1FA JUMP JUMPDEST SWAP2 SWAP1 POP JUMP JUMPDEST PUSH0 DUP2 SWAP1 POP SWAP2 SWAP1 POP JUMP JUMPDEST PUSH2 0x257 DUP2 PUSH2 0x245 JUMP JUMPDEST DUP2 EQ PUSH2 0x261 JUMPI PUSH0 DUP1 REVERT JUMPDEST POP JUMP JUMPDEST PUSH0 DUP2 CALLDATALOAD SWAP1 POP PUSH2 0x272 DUP2 PUSH2 0x24E JUMP JUMPDEST SWAP3 SWAP2 POP POP JUMP JUMPDEST PUSH0 PUSH1 0x40 DUP3 DUP5 SUB SLT ISZERO PUSH2 0x28D JUMPI PUSH2 0x28C PUSH2 0x1B9 JUMP JUMPDEST JUMPDEST PUSH2 0x297 PUSH1 0x40 PUSH2 0x22B JUMP JUMPDEST SWAP1 POP PUSH0 PUSH2 0x2A6 DUP5 DUP3 DUP6 ADD PUSH2 0x264 JUMP JUMPDEST PUSH0 DUP4 ADD MSTORE POP PUSH1 0x20 PUSH2 0x2B9 DUP5 DUP3 DUP6 ADD PUSH2 0x264 JUMP JUMPDEST PUSH1 0x20 DUP4 ADD MSTORE POP SWAP3 SWAP2 POP POP JUMP JUMPDEST PUSH0 PUSH1 0x80 DUP3 DUP5 SUB SLT ISZERO PUSH2 0x2DA JUMPI PUSH2 0x2D9 PUSH2 0x1B9 JUMP JUMPDEST JUMPDEST PUSH2 0x2E4 PUSH1 0x80 PUSH2 0x22B JUMP JUMPDEST SWAP1 POP PUSH0 PUSH2 0x2F3 DUP5 DUP3 DUP6 ADD PUSH2 0x264 JUMP JUMPDEST PUSH0 DUP4 ADD MSTORE POP PUSH1 0x20 PUSH2 0x306 DUP5 DUP3 DUP6 ADD PUSH2 0x264 JUMP JUMPDEST PUSH1 0x20 DUP4 ADD MSTORE POP PUSH1 0x40 PUSH2 0x31A DUP5 DUP3 DUP6 ADD PUSH2 0x264 JUMP JUMPDEST PUSH1 0x40 DUP4 ADD MSTORE POP PUSH1 0x60 PUSH2 0x32E DUP5 DUP3 DUP6 ADD PUSH2 0x264 JUMP JUMPDEST PUSH1 0x60 DUP4 ADD MSTORE POP SWAP3 SWAP2 POP POP JUMP JUMPDEST PUSH0 DUP1 PUSH0 DUP1 PUSH2 0x180 DUP6 DUP8 SUB SLT ISZERO PUSH2 0x353 JUMPI PUSH2 0x352 PUSH2 0x1B5 JUMP JUMPDEST JUMPDEST PUSH0 PUSH2 0x360 DUP8 DUP3 DUP9 ADD PUSH2 0x278 JUMP JUMPDEST SWAP5 POP POP PUSH1 0x40 PUSH2 0x371 DUP8 DUP3 DUP9 ADD PUSH2 0x2C5 JUMP JUMPDEST SWAP4 POP POP PUSH1 0xC0 PUSH2 0x382 DUP8 DUP3 DUP9 ADD PUSH2 0x278 JUMP JUMPDEST SWAP3 POP POP PUSH2 0x100 PUSH2 0x394 DUP8 DUP3 DUP9 ADD PUSH2 0x2C5 JUMP JUMPDEST SWAP2 POP POP SWAP3 SWAP6 SWAP2 SWAP5 POP SWAP3 POP JUMP JUMPDEST PUSH0 DUP2 ISZERO ISZERO SWAP1 POP SWAP2 SWAP1 POP JUMP JUMPDEST PUSH2 0x3B4 DUP2 PUSH2 0x3A0 JUMP JUMPDEST DUP3 MSTORE POP POP JUMP JUMPDEST PUSH0 PUSH1 0x20 DUP3 ADD SWAP1 POP PUSH2 0x3CD PUSH0 DUP4 ADD DUP5 PUSH2 0x3AB JUMP JUMPDEST SWAP3 SWAP2 POP POP JUMP JUMPDEST PUSH32 0x4E487B7100000000000000000000000000000000000000000000000000000000 PUSH0 MSTORE PUSH1 0x11 PUSH1 0x4 MSTORE PUSH1 0x24 PUSH0 REVERT JUMPDEST PUSH0 PUSH2 0x40A DUP3 PUSH2 0x245 JUMP JUMPDEST SWAP2 POP PUSH2 0x415 DUP4 PUSH2 0x245 JUMP JUMPDEST SWAP3 POP DUP3 DUP3 SUB SWAP1 POP DUP2 DUP2 GT ISZERO PUSH2 0x42D JUMPI PUSH2 0x42C PUSH2 0x3D3 JUMP JUMPDEST JUMPDEST SWAP3 SWAP2 POP POP JUMP JUMPDEST PUSH2 0x43C DUP2 PUSH2 0x245 JUMP JUMPDEST DUP3 MSTORE POP POP JUMP JUMPDEST PUSH0 PUSH2 0x180 DUP3 ADD SWAP1 POP PUSH2 0x456 PUSH0 DUP4 ADD DUP16 PUSH2 0x433 JUMP JUMPDEST PUSH2 0x463 PUSH1 0x20 DUP4 ADD DUP15 PUSH2 0x433 JUMP JUMPDEST PUSH2 0x470 PUSH1 0x40 DUP4 ADD DUP14 PUSH2 0x433 JUMP JUMPDEST PUSH2 0x47D PUSH1 0x60 DUP4 ADD DUP13 PUSH2 0x433 JUMP JUMPDEST PUSH2 0x48A PUSH1 0x80 DUP4 ADD DUP12 PUSH2 0x433 JUMP JUMPDEST PUSH2 0x497 PUSH1 0xA0 DUP4 ADD DUP11 PUSH2 0x433 JUMP JUMPDEST PUSH2 0x4A4 PUSH1 0xC0 DUP4 ADD DUP10 PUSH2 0x433 JUMP JUMPDEST PUSH2 0x4B1 PUSH1 0xE0 DUP4 ADD DUP9 PUSH2 0x433 JUMP JUMPDEST PUSH2 0x4BF PUSH2 0x100 DUP4 ADD DUP8 PUSH2 0x433 JUMP JUMPDEST PUSH2 0x4CD PUSH2 0x120 DUP4 ADD DUP7 PUSH2 0x433 JUMP JUMPDEST PUSH2 0x4DB PUSH2 0x140 DUP4 ADD DUP6 PUSH2 0x433 JUMP JUMPDEST PUSH2 0x4E9 PUSH2 0x160 DUP4 ADD DUP5 PUSH2 0x433 JUMP JUMPDEST SWAP14 SWAP13 POP POP POP POP POP POP POP POP POP POP POP POP POP JUMP JUMPDEST PUSH0 DUP2 MLOAD SWAP1 POP SWAP2 SWAP1 POP JUMP JUMPDEST PUSH0 DUP2 SWAP1 POP SWAP3 SWAP2 POP POP JUMP JUMPDEST DUP3 DUP2 DUP4 MCOPY PUSH0 DUP4 DUP4 ADD MSTORE POP POP POP JUMP JUMPDEST PUSH0 PUSH2 0x526 DUP3 PUSH2 0x4FA JUMP JUMPDEST PUSH2 0x530 DUP2 DUP6 PUSH2 0x504 JUMP JUMPDEST SWAP4 POP PUSH2 0x540 DUP2 DUP6 PUSH1 0x20 DUP7 ADD PUSH2 0x50E JUMP JUMPDEST DUP1 DUP5 ADD SWAP2 POP POP SWAP3 SWAP2 POP POP JUMP JUMPDEST PUSH0 PUSH2 0x557 DUP3 DUP5 PUSH2 0x51C JUMP JUMPDEST SWAP2 POP DUP2 SWAP1 POP SWAP3 SWAP2 POP POP JUMP JUMPDEST PUSH2 0x56B DUP2 PUSH2 0x3A0 JUMP JUMPDEST DUP2 EQ PUSH2 0x575 JUMPI PUSH0 DUP1 REVERT JUMPDEST POP JUMP JUMPDEST PUSH0 DUP2 MLOAD SWAP1 POP PUSH2 0x586 DUP2 PUSH2 0x562 JUMP JUMPDEST SWAP3 SWAP2 POP POP JUMP JUMPDEST PUSH0 PUSH1 0x20 DUP3 DUP5 SUB SLT ISZERO PUSH2 0x5A1 JUMPI PUSH2 0x5A0 PUSH2 0x1B5 JUMP JUMPDEST JUMPDEST PUSH0 PUSH2 0x5AE DUP5 DUP3 DUP6 ADD PUSH2 0x578 JUMP JUMPDEST SWAP2 POP POP SWAP3 SWAP2 POP POP JUMP INVALID LOG2 PUSH5 0x6970667358 0x22 SLT KECCAK256 0xF8 0xE6 PUSH23 0x4AE1C029F58F1CE300C3A265D9F844FB624342194D1005 0xD7 0xDE 0xCB 0xD3 0x22 0xE4 PUSH5 0x736F6C6343 STOP ADDMOD BYTE STOP CALLER "
		},
		"gasEstimates": {
			"creation": {
				"codeDepositCost": "303400",
				"executionCost": "341",
				"totalCost": "303741"
			},
			"external": {
				"verify((uint256,uint256),(uint256,uint256,uint256,uint256),(uint256,uint256),(uint256,uint256,uint256,uint256))": "infinite"
			}
		},
		"methodIdentifiers": {
			"verify((uint256,uint256),(uint256,uint256,uint256,uint256),(uint256,uint256),(uint256,uint256,uint256,uint256))": "7c2f3554"
		}
	},
	"abi": [
		{
			"inputs": [
				{
					"components": [
						{
							"internalType": "uint256",
							"name": "x",
							"type": "uint256"
						},
						{
							"internalType": "uint256",
							"name": "y",
							"type": "uint256"
						}
					],
					"internalType": "struct ECPairing.G1",
					"name": "A",
					"type": "tuple"
				},
				{
					"components": [
						{
							"internalType": "uint256",
							"name": "x1",
							"type": "uint256"
						},
						{
							"internalType": "uint256",
							"name": "x1_im",
							"type": "uint256"
						},
						{
							"internalType": "uint256",
							"name": "y1",
							"type": "uint256"
						},
						{
							"internalType": "uint256",
							"name": "y1_im",
							"type": "uint256"
						}
					],
					"internalType": "struct ECPairing.G2",
					"name": "B",
					"type": "tuple"
				},
				{
					"components": [
						{
							"internalType": "uint256",
							"name": "x",
							"type": "uint256"
						},
						{
							"internalType": "uint256",
							"name": "y",
							"type": "uint256"
						}
					],
					"internalType": "struct ECPairing.G1",
					"name": "C",
					"type": "tuple"
				},
				{
					"components": [
						{
							"internalType": "uint256",
							"name": "x1",
							"type": "uint256"
						},
						{
							"internalType": "uint256",
							"name": "x1_im",
							"type": "uint256"
						},
						{
							"internalType": "uint256",
							"name": "y1",
							"type": "uint256"
						},
						{
							"internalType": "uint256",
							"name": "y1_im",
							"type": "uint256"
						}
					],
					"internalType": "struct ECPairing.G2",
					"name": "D",
					"type": "tuple"
				}
			],
			"name": "verify",
			"outputs": [
				{
					"internalType": "bool",
					"name": "",
					"type": "bool"
				}
			],
			"stateMutability": "nonpayable",
			"type": "function"
		}
	]
}